:100000000C9442000C9454000C9454000C94540032
:100010000C9454000C9454000C9454000C94540010
:100020000C9454000C9454000C9454000C94540000
:100030000C9454000C9454000C9454000C945400F0
:100040000C9454000C9454000C9454000C945400E0
:100050000C9454007B037F03830317048703170466
:100060008B038F03B403B803BD031A04C2031A043D
:10007000C703CC03EF03F203F703FC0301040604F8
:100080000B04100411241FBECFE5D8E0DEBFCDBFA6
:1000900020E0A0E6B0E001C01D92AA36B207E1F769
:1000A0000E9476020C94AF050C9400000E94B100EF
:1000B0000E942002089581E690E00E94440220916F
:1000C0006100309162002E31310520F091E0909373
:1000D00060001CC020916100309162002B3031051E
:1000E00058F020916100309162002E31310520F4EA
:1000F00092E0909360000AC020916100309162000C
:100100002B30310518F493E09093600090916000DB
:10011000923049F09330A9F0913001F56EE181E021
:100120000E94C0001BC06EE183E00E94C0002FEF60
:1001300031EE94E0215030409040E1F700C00000E3
:100140000DC062E382E00E94C0002FEF31EE94E028
:10015000215030409040E1F700C000001092600054
:10016000089581E00E945E0182E00E945E016EE1DE
:1001700081E00E94E2016EE182E00E94E2010895C6
:10018000CF93C62F823019F128F4882341F08130B3
:1001900069F045C0833061F18430B1F140C081E045
:1001A0000E94FB0182E00E94FB0139C061E081E016
:1001B0000E949F0161E082E00E949F016C2F81E01C
:1001C0000E94E2016C2F82E00E94E20128C062E0FE
:1001D00081E00E949F0162E082E00E949F016C2FFB
:1001E00081E00E94E2016C2F82E00E94E20117C0D0
:1001F00082E00E94FB0161E081E00E949F016C2F80
:1002000081E00E94E2010BC081E00E94FB0161E0FD
:1002100082E00E949F016C2F82E00E94E20180E058
:10022000CF910895BA98C29AFC018181823029F455
:1002300085B5876085BD80E0089581E008956130CF
:10024000A9F030F16230C1F5B29BFECFB299FECF7A
:1002500014BCB29BFECF84B590E0A0E0B0E0FA0100
:1002600080839183A283B38380E00895B299FECF07
:10027000B29BFECF14BCB299FECF84B590E0A0E053
:10028000B0E0FA0180839183A283B38380E0089574
:10029000B299FECFB29BFECF14BCB299FECFB29BF7
:1002A000FECF84B590E0A0E0B0E0FA0180839183B6
:1002B000A283B38380E0089581E00895CF93DF9314
:1002C000CDB7DEB728970FB6F894DEBF0FBECDBF0F
:1002D000813019F08230A9F028C083E089838FEF44
:1002E0008B838CE18A83CE0101960E94840281E097
:1002F0008F8384E08887CE0107960E940A0380E0FE
:1003000015C083E08C838FEF8E8380EE8D83CE01CA
:1003100004960E94840282E08F8384E08887CE0165
:1003200007960E940A0380E001C081E028960FB67C
:10033000F894DEBF0FBECDBFDF91CF91089581301D
:1003400019F08230E9F038C0613061F44FEF64E0B9
:1003500083E00E94CC0240E068E083E00E94CC028F
:1003600080E00895623051F540E064E083E00E944F
:10037000CC024FEF68E083E00E94CC0280E0089559
:10038000613061F44FEF60E483E00E94CC0240E012
:1003900060E883E00E94CC0280E00895623081F43E
:1003A00040E060E483E00E94CC024FEF60E883E02D
:1003B0000E94CC0280E0089581E0089580E00895D5
:1003C00080E00895813019F0823051F012C021E0B0
:1003D00030E040E050E081E00E94250380E0089595
:1003E00021E030E040E050E082E00E94250380E020
:1003F000089581E00895813019F0823081F01EC0A7
:1004000081E00E944E0340E064E083E00E94CC0261
:1004100040E068E083E00E94CC0280E0089582E042
:100420000E944E0340E060E483E00E94CC0240E082
:1004300060E883E00E94CC0280E0089581E00895A6
:100440001F93CF93DF9300D000D01F92CDB7DEB7BC
:1004500083E0898381E08A838FEF8B8382E08C83C2
:100460008D83CE0101960E948402182FCE0104963E
:100470000E941201812B0F900F900F900F900F9000
:10048000DF91CF911F910895EF92FF921F93CF9329
:10049000DF9300D000D0CDB7DEB77C0119821A827D
:1004A0001B821C82AE014F5F5F4F61E082E00E94C1
:1004B0001F01182F69817A818B819C810E9486049B
:1004C00026E933E44BE85FE30E94EC040E94570402
:1004D000F70171836083812F0F900F900F900F9021
:1004E000DF91CF911F91FF90EF9008950E945600E9
:1004F0000E945B002FEF81EE94E0215080409040FD
:10050000E1F700C00000F4CFFC0180818130A9F048
:1005100028F0823009F1833071F13CC09281992337
:1005200029F02AB39181922B9ABB08952AB3818135
:10053000809582238ABB892F08958281882331F098
:1005400097B38181892B87BB80E0089527B3918180
:100550009095922397BB08958281882331F094B3BC
:100560008181892B84BB80E0089524B3918190958B
:10057000922394BB08958281882331F091B38181C5
:10058000892B81BB80E0089521B3918190959223BE
:1005900091BB089581E00895813099F028F0823070
:1005A000E9F0833041F134C0442329F08BB3682B48
:1005B0006BBB80E008958BB3609568236BBB80E0D4
:1005C0000895442329F088B3682B68BB80E0089520
:1005D00088B36095682368BB80E00895442329F0C0
:1005E00085B3682B65BB80E0089585B3609568236B
:1005F00065BB80E00895442329F082B3682B62BB79
:1006000080E0089582B36095682362BB80E008951E
:1006100081E00895CF93DF9300D000D000D0CDB714
:10062000DEB781E089831A8288E08B8386E08C8341
:10063000CE0101960E94530326960FB6F894DEBFB2
:100640000FBECDBFDF91CF9108952FEF629FC00104
:10065000112464E670E00E948105CB01072E000C96
:10066000AA0BBB0B8093630090936400A09365007A
:10067000B09366007BBD6ABD809163009091640079
:1006800099BD88BD60E070E081E00E941C042EB539
:100690003FB52860316A3FBD2EBD089581E00E94BC
:1006A000400480E00895FC0190819130E1F120F058
:1006B000923009F476C0B9C083B7877B2181822B41
:1006C00083BF8281882319F0813029F008C089B75F
:1006D0008C7F89BF04C089B78C7F816089BF83818B
:1006E000482F50E04830510508F0A4C0FA01E65DFB
:1006F000FF4F0C94950510926900982F9BC081E0E4
:100700008093690097C082E08093690093C083E082
:10071000809369008FC084E0809369008BC085E07E
:100720008093690087C02EB53FB58181282B3FBDDE
:100730002EBD8281882319F0813029F008C089B745
:10074000837C89BF04C089B7837C806189BF838132
:10075000482F50E04830510528F4FA01EE5CFF4F75
:100760000C94950590E066C010926800982F62C0C6
:1007700081E08093680090E05DC082E08093680033
:1007800090E058C083E08093680090E053C084E01C
:100790008093680090E04EC085E08093680090E010
:1007A00049C085B5877B9181892B85BD828188234E
:1007B00019F0813029F008C089B78F7389BF04C050
:1007C00089B78F73806489BF9381492F50E0483087
:1007D000510578F5FA01E65CFF4F0C9495051092EF
:1007E000670028C081E08093670090E023C082E02A
:1007F0008093670090E01EC083E08093670090E0E4
:1008000019C084E08093670090E014C085E0809375
:10081000670090E00FC086E08093670090E00AC018
:1008200087E08093670090E005C091E003C091E00D
:1008300001C090E0892F0895813069F018F082306E
:10084000A1F01CC083B7887F90916900892B83BF7A
:1008500062BF80E008958EB5887F90916800892BF3
:100860008EBD7DBD6CBD80E0089585B5887F90917B
:100870006700892B85BD64BD80E0089581E00895FF
:10088000813049F018F0823059F00FC083B7887F6B
:1008900083BF80E008958EB5887F8EBD80E0089587
:1008A00085B5887F85BD80E0089581E008950E9428
:1008B000CB0488F09F5798F0B92F9927B751B0F023
:1008C000E1F0660F771F881F991F1AF0BA95C9F7D4
:1008D00014C0B13091F00E94E504B1E008950C9489
:1008E000E504672F782F8827B85F39F0B93FCCF33C
:1008F000869577956795B395D9F73EF49095809551
:10090000709561957F4F8F4F9F4F0895E89409C070
:1009100097FB3EF490958095709561957F4F8F4F32
:100920009F4F9923A9F0F92F96E9BB279395F69548
:10093000879577956795B795F111F8CFFAF4BB0FC6
:1009400011F460FF1BC06F5F7F4F8F4F9F4F16C02A
:10095000882311F096E911C0772321F09EE8872FB4
:10096000762F05C0662371F096E8862F70E060E070
:100970002AF09A95660F771F881FDAF7880F9695E9
:10098000879597F9089557FD9058440F551F59F0D2
:100990005F3F71F04795880F97FB991F61F09F3F6C
:1009A00079F087950895121613061406551FF2CF95
:1009B0004695F1DF08C0161617061806991FF1CFE5
:1009C00086957105610508940895E894BB2766270C
:1009D0007727CB0197F908950E94FF040C947005C6
:1009E0000E94620538F00E94690520F0952311F0FD
:1009F0000C9459050C945F0511240C94E6040E9494
:100A0000C30470F3959FC1F3950F50E0551F629F8B
:100A1000F001729FBB27F00DB11D639FAA27F00D57
:100A2000B11DAA1F649F6627B00DA11D661F829F7E
:100A30002227B00DA11D621F739FB00DA11D621F63
:100A4000839FA00D611D221F749F3327A00D611D80
:100A5000231F849F600D211D822F762F6A2F112462
:100A60009F5750409AF0F1F088234AF0EE0FFF1F95
:100A7000BB1F661F771F881F91505040A9F79E3FEC
:100A8000510580F00C9459050C94E6045F3FE4F3A3
:100A9000983ED4F3869577956795B795F795E79542
:100AA0009F5FC1F7FE2B880F911D9695879597F94B
:100AB000089597F99F6780E870E060E008959FEFE0
:100AC00080EC089500240A941616170618060906E5
:100AD000089500240A9412161306140605060895B4
:100AE000092E0394000C11F4882352F0BB0F40F43C
:100AF000BF2B11F460FF04C06F5F7F4F8F4F9F4F7C
:100B0000089597FB072E16F4009407D077FD09D0BF
:100B10000E949B0507FC05D03EF4909581959F4F60
:100B20000895709561957F4F0895EE0FFF1F059012
:100B3000F491E02D0994AA1BBB1B51E107C0AA1F29
:100B4000BB1FA617B70710F0A61BB70B881F991F6E
:100B50005A95A9F780959095BC01CD010895F89418
:020B6000FFCFC5
:00000001FF
